{
    "contractName": "ContractKeeper",
    "abi": [
        {
            "inputs": [],
            "stateMutability": "nonpayable",
            "type": "constructor"
        },
        {
            "anonymous": false,
            "inputs": [
                {
                    "indexed": true,
                    "internalType": "address",
                    "name": "previousOwner",
                    "type": "address"
                },
                {
                    "indexed": true,
                    "internalType": "address",
                    "name": "newOwner",
                    "type": "address"
                }
            ],
            "name": "OwnershipTransferred",
            "type": "event"
        },
        {
            "anonymous": false,
            "inputs": [
                {
                    "indexed": false,
                    "internalType": "uint256",
                    "name": "lchash",
                    "type": "uint256"
                }
            ],
            "name": "legalContractAdded",
            "type": "event"
        },
        {
            "anonymous": false,
            "inputs": [
                {
                    "indexed": false,
                    "internalType": "uint256",
                    "name": "lchash",
                    "type": "uint256"
                },
                {
                    "indexed": false,
                    "internalType": "address",
                    "name": "signer",
                    "type": "address"
                }
            ],
            "name": "legalContractSigned",
            "type": "event"
        },
        {
            "inputs": [
                {
                    "internalType": "uint256",
                    "name": "lchash",
                    "type": "uint256"
                },
                {
                    "internalType": "address[]",
                    "name": "signers",
                    "type": "address[]"
                },
                {
                    "internalType": "string[]",
                    "name": "names",
                    "type": "string[]"
                }
            ],
            "name": "addLegalContract",
            "outputs": [
                {
                    "internalType": "bool",
                    "name": "",
                    "type": "bool"
                }
            ],
            "stateMutability": "payable",
            "type": "function"
        },
        {
            "inputs": [],
            "name": "destroyContract",
            "outputs": [],
            "stateMutability": "nonpayable",
            "type": "function"
        },
        {
            "inputs": [
                {
                    "internalType": "uint256",
                    "name": "lchash",
                    "type": "uint256"
                }
            ],
            "name": "getContractSigners",
            "outputs": [
                {
                    "internalType": "address[]",
                    "name": "",
                    "type": "address[]"
                },
                {
                    "internalType": "string[]",
                    "name": "",
                    "type": "string[]"
                }
            ],
            "stateMutability": "view",
            "type": "function"
        },
        {
            "inputs": [
                {
                    "internalType": "uint256",
                    "name": "lchash",
                    "type": "uint256"
                }
            ],
            "name": "getLegalContract",
            "outputs": [
                {
                    "components": [
                        {
                            "internalType": "address[]",
                            "name": "signers",
                            "type": "address[]"
                        },
                        {
                            "internalType": "string[]",
                            "name": "signersNames",
                            "type": "string[]"
                        },
                        {
                            "internalType": "uint256",
                            "name": "numSigners",
                            "type": "uint256"
                        },
                        {
                            "internalType": "enum ContractKeeper.Status",
                            "name": "status",
                            "type": "uint8"
                        }
                    ],
                    "internalType": "struct ContractKeeper.LegalContract",
                    "name": "",
                    "type": "tuple"
                },
                {
                    "internalType": "bool[]",
                    "name": "",
                    "type": "bool[]"
                }
            ],
            "stateMutability": "view",
            "type": "function"
        },
        {
            "inputs": [],
            "name": "owner",
            "outputs": [
                {
                    "internalType": "address",
                    "name": "",
                    "type": "address"
                }
            ],
            "stateMutability": "view",
            "type": "function"
        },
        {
            "inputs": [
                {
                    "internalType": "uint256",
                    "name": "lchash",
                    "type": "uint256"
                }
            ],
            "name": "removeContract",
            "outputs": [],
            "stateMutability": "nonpayable",
            "type": "function"
        },
        {
            "inputs": [],
            "name": "renounceOwnership",
            "outputs": [],
            "stateMutability": "nonpayable",
            "type": "function"
        },
        {
            "inputs": [
                {
                    "internalType": "uint256",
                    "name": "lchash",
                    "type": "uint256"
                }
            ],
            "name": "signContract",
            "outputs": [
                {
                    "internalType": "bool",
                    "name": "",
                    "type": "bool"
                }
            ],
            "stateMutability": "nonpayable",
            "type": "function"
        },
        {
            "inputs": [
                {
                    "internalType": "address",
                    "name": "newOwner",
                    "type": "address"
                }
            ],
            "name": "transferOwnership",
            "outputs": [],
            "stateMutability": "nonpayable",
            "type": "function"
        }
    ],
    "bytecode": "608060405234801561001057600080fd5b5061001a3361001f565b61006f565b600080546001600160a01b038381166001600160a01b0319831681178455604051919092169283917f8be0079c531659141344cd1fd0a4f28419497f9722a3daafe3b4186f6b6457e09190a35050565b6114ef8061007e6000396000f3fe6080604052600436106100865760003560e01c80638da5cb5b116100595780638da5cb5b1461010e5780639537e8d11461013657806397a371d614610166578063c2838a2714610194578063f2fde38b146101a757600080fd5b8063092a5cce1461008b578063715018a6146100a25780637aa66dd3146100b75780637cca3b06146100ee575b600080fd5b34801561009757600080fd5b506100a06101c7565b005b3480156100ae57600080fd5b506100a06101fd565b3480156100c357600080fd5b506100d76100d2366004610f02565b610233565b6040516100e5929190611021565b60405180910390f35b3480156100fa57600080fd5b506100a0610109366004610f02565b610525565b34801561011a57600080fd5b506000546040516001600160a01b0390911681526020016100e5565b34801561014257600080fd5b50610156610151366004610f02565b610552565b60405190151581526020016100e5565b34801561017257600080fd5b50610186610181366004610f02565b61073e565b6040516100e59291906110ca565b6101566101a23660046111f0565b6108d4565b3480156101b357600080fd5b506100a06101c236600461126a565b610c48565b6000546001600160a01b031633146101fa5760405162461bcd60e51b81526004016101f19061129a565b60405180910390fd5b33ff5b6000546001600160a01b031633146102275760405162461bcd60e51b81526004016101f19061129a565b6102316000610cdc565b565b61023b610d2c565b6060826000808281526002602081905260409091206003015460ff169081111561026757610267610fac565b14156102855760405162461bcd60e51b81526004016101f1906112cf565b60008481526002602052604081205467ffffffffffffffff8111156102ac576102ac6112fb565b6040519080825280602002602001820160405280156102d5578160200160208202803683370190505b50905060005b60008681526002602052604090205460ff8216101561038c57600086815260036020908152604080832060029092528220805491929160ff851690811061032457610324611311565b60009182526020808320909101546001600160a01b03168352820192909252604001902054825160ff610100909204821691849190841690811061036a5761036a611311565b91151560209283029190910190910152806103848161133d565b9150506102db565b506000858152600260209081526040918290208251815460a093810282018401909452608081018481529193859391928592849284918401828280156103fb57602002820191906000526020600020905b81546001600160a01b031681526001909101906020018083116103dd575b5050505050815260200160018201805480602002602001604051908101604052809291908181526020016000905b828210156104d55783829060005260206000200180546104489061135d565b80601f01602080910402602001604051908101604052809291908181526020018280546104749061135d565b80156104c15780601f10610496576101008083540402835291602001916104c1565b820191906000526020600020905b8154815290600101906020018083116104a457829003601f168201915b505050505081526020019060010190610429565b505050908252506002828101546020830152600383015460409092019160ff169081111561050557610505610fac565b600281111561051657610516610fac565b90525095509350505050915091565b6000546001600160a01b0316331461054f5760405162461bcd60e51b81526004016101f19061129a565b50565b6000818152600360209081526040808320338452909152812054829060ff166105cb5760405162461bcd60e51b815260206004820152602560248201527f53656e646572206973206e6f74207369676e6572206f66207468697320636f6e6044820152641d1c9858dd60da1b60648201526084016101f1565b82600160008281526002602081905260409091206003015460ff16908111156105f6576105f6610fac565b146106135760405162461bcd60e51b81526004016101f1906112cf565b60008481526003602090815260408083203384529091529020548490610100900460ff161561067c5760405162461bcd60e51b815260206004820152601560248201527414d95b99195c88185b1c9958591e481cda59db9959605a1b60448201526064016101f1565b60008581526003602090815260408083203384528252808320805461ff0019166101001790558783526002918290528220018054916106ba83611398565b90915550506000858152600260208190526040909120805491015414156106fb576000858152600260208190526040909120600301805460ff191690911790555b604080518681523360208201527f3f62b5aa439f9e317418314cb023fca545f36e1cf84c329b1576f89c7bcce9f6910160405180910390a1506001949350505050565b60608082600160008281526002602081905260409091206003015460ff169081111561076c5761076c610fac565b146107895760405162461bcd60e51b81526004016101f1906112cf565b600084815260026020908152604091829020805483518184028101840190945280845290926001840192909184918301828280156107f057602002820191906000526020600020905b81546001600160a01b031681526001909101906020018083116107d2575b5050505050915080805480602002602001604051908101604052809291908181526020016000905b828210156108c45783829060005260206000200180546108379061135d565b80601f01602080910402602001604051908101604052809291908181526020018280546108639061135d565b80156108b05780601f10610885576101008083540402835291602001916108b0565b820191906000526020600020905b81548152906001019060200180831161089357829003601f168201915b505050505081526020019060010190610818565b5050505090509250925050915091565b60008484848480831461093b5760405162461bcd60e51b815260206004820152602960248201527f4e756d626572206f66207369676e65727320616e64206e616d657320617265206044820152681b9bdc88195c5d585b60ba1b60648201526084016101f1565b60018311801561094c575060038311155b6109985760405162461bcd60e51b815260206004820152601760248201527f4976616c6964206e756d6572206f66207369676e65727300000000000000000060448201526064016101f1565b896000808281526002602081905260409091206003015460ff16908111156109c2576109c2610fac565b14610a085760405162461bcd60e51b815260206004820152601660248201527510dbdb9d1c9858dd08185b1c9958591e48195e1a5cdd60521b60448201526064016101f1565b6001341015610a4c5760405162461bcd60e51b815260206004820152601060248201526f4e6f7420456e6f7567682066756e647360801b60448201526064016101f1565b60005b89811015610af55760408051808201825260018152600060208083018290528f82526003905291822090918d8d85818110610a8c57610a8c611311565b9050602002016020810190610aa1919061126a565b6001600160a01b0316815260208082019290925260400160002082518154939092015115156101000261ff00199215159290921661ffff199093169290921717905580610aed81611398565b915050610a4f565b5060405180608001604052808b8b80806020026020016040519081016040528093929190818152602001838360200280828437600092019190915250505090825250602001610b44898b6113e4565b8152600060208201526040016001905260008c8152600260209081526040909120825180519192610b7a92849290910190610d64565b506020828101518051610b939260018501920190610dc9565b506040820151816002015560608201518160030160006101000a81548160ff02191690836002811115610bc857610bc8610fac565b021790555050600480546001810182556000919091527f8a35acfbc15ff81a39ae7d344fd709f28e8600b4aa8c65c6b64bfe7fe36bd19b018c9055506040518b81527fc8864f3476f2298d96ccec666004a3b4a65561aaade1ce77f4782fe20a06f84e9060200160405180910390a15060019a9950505050505050505050565b6000546001600160a01b03163314610c725760405162461bcd60e51b81526004016101f19061129a565b6001600160a01b038116610cd75760405162461bcd60e51b815260206004820152602660248201527f4f776e61626c653a206e6577206f776e657220697320746865207a65726f206160448201526564647265737360d01b60648201526084016101f1565b61054f815b600080546001600160a01b038381166001600160a01b0319831681178455604051919092169283917f8be0079c531659141344cd1fd0a4f28419497f9722a3daafe3b4186f6b6457e09190a35050565b604051806080016040528060608152602001606081526020016000815260200160006002811115610d5f57610d5f610fac565b905290565b828054828255906000526020600020908101928215610db9579160200282015b82811115610db957825182546001600160a01b0319166001600160a01b03909116178255602090920191600190910190610d84565b50610dc5929150610e22565b5090565b828054828255906000526020600020908101928215610e16579160200282015b82811115610e165782518051610e06918491602090910190610e37565b5091602001919060010190610de9565b50610dc5929150610eab565b5b80821115610dc55760008155600101610e23565b828054610e439061135d565b90600052602060002090601f016020900481019282610e655760008555610db9565b82601f10610e7e57805160ff1916838001178555610db9565b82800160010185558215610db9579182015b82811115610db9578251825591602001919060010190610e90565b80821115610dc5576000610ebf8282610ec8565b50600101610eab565b508054610ed49061135d565b6000825580601f10610ee4575050565b601f01602090049060005260206000209081019061054f9190610e22565b600060208284031215610f1457600080fd5b5035919050565b600082825180855260208086019550808260051b8401018186016000805b85811015610f9e57601f1980888603018b5283518051808752845b81811015610f6f578281018901518882018a01528801610f54565b81811115610f7f578589838a0101525b509b87019b601f01909116949094018501935091840191600101610f39565b509198975050505050505050565b634e487b7160e01b600052602160045260246000fd5b60038110610fe057634e487b7160e01b600052602160045260246000fd5b9052565b600081518084526020808501945080840160005b83811015611016578151151587529582019590820190600101610ff8565b509495945050505050565b60408152600060c0820184516080604085015281815180845260e08601915060209350838301925060005b818110156110715783516001600160a01b03168352928401929184019160010161104c565b505086830151858203603f19016060870152915061108f8183610f1b565b9150506040860151608085015260608601516110ae60a0860182610fc2565b50838103828501526110c08186610fe4565b9695505050505050565b604080825283519082018190526000906020906060840190828701845b8281101561110c5781516001600160a01b0316845292840192908401906001016110e7565b50505083810382850152845180825282820190600581901b8301840187850160005b8381101561119557601f19808785030186528251805180865260005b81811015611165578281018b01518782018c01528a0161114a565b818111156111765760008b83890101525b5096890196601f0190911693909301870192509086019060010161112e565b50909998505050505050505050565b60008083601f8401126111b657600080fd5b50813567ffffffffffffffff8111156111ce57600080fd5b6020830191508360208260051b85010111156111e957600080fd5b9250929050565b60008060008060006060868803121561120857600080fd5b85359450602086013567ffffffffffffffff8082111561122757600080fd5b61123389838a016111a4565b9096509450604088013591508082111561124c57600080fd5b50611259888289016111a4565b969995985093965092949392505050565b60006020828403121561127c57600080fd5b81356001600160a01b038116811461129357600080fd5b9392505050565b6020808252818101527f4f776e61626c653a2063616c6c6572206973206e6f7420746865206f776e6572604082015260600190565b60208082526012908201527110dbdb9d1c9858dd081b9bdd08195e1a5cdd60721b604082015260600190565b634e487b7160e01b600052604160045260246000fd5b634e487b7160e01b600052603260045260246000fd5b634e487b7160e01b600052601160045260246000fd5b600060ff821660ff81141561135457611354611327565b60010192915050565b600181811c9082168061137157607f821691505b6020821081141561139257634e487b7160e01b600052602260045260246000fd5b50919050565b60006000198214156113ac576113ac611327565b5060010190565b604051601f8201601f1916810167ffffffffffffffff811182821017156113dc576113dc6112fb565b604052919050565b600067ffffffffffffffff808411156113ff576113ff6112fb565b8360051b60206114108183016113b3565b86815291850191818101903684111561142857600080fd5b865b848110156114ad578035868111156114425760008081fd5b8801601f36818301126114555760008081fd5b813588811115611467576114676112fb565b611478818301601f191688016113b3565b9150808252368782850101111561148f5760008081fd5b8087840188840137600090820187015284525091830191830161142a565b5097965050505050505056fea2646970667358221220617f67bf4a31a777b836797ae65da505702b96246e53e1bdb6a8b93bca98a98564736f6c63430008090033",
    "sourcePath": "/home/wrbp/BC/ContractKeeper/contracts/ContractKeeper.sol",
    "compiler": {
        "name": "solc",
        "version": "0.8.9+commit.e5eed63a"
    },
    "functionHashes": {
        "addLegalContract(uint256,address[],string[])": "c2838a27",
        "destroyContract()": "092a5cce",
        "getContractSigners(uint256)": "97a371d6",
        "getLegalContract(uint256)": "7aa66dd3",
        "owner()": "8da5cb5b",
        "removeContract(uint256)": "7cca3b06",
        "renounceOwnership()": "715018a6",
        "signContract(uint256)": "9537e8d1",
        "transferOwnership(address)": "f2fde38b"
    },
    "gasEstimates": {
        "creation": {
            "codeDepositCost": "1071800",
            "executionCost": "26955",
            "totalCost": "1098755"
        },
        "external": {
            "addLegalContract(uint256,address[],string[])": "infinite",
            "destroyContract()": "29878",
            "getContractSigners(uint256)": "infinite",
            "getLegalContract(uint256)": "infinite",
            "owner()": "2301",
            "removeContract(uint256)": "2553",
            "renounceOwnership()": "28137",
            "signContract(uint256)": "85768",
            "transferOwnership(address)": "28351"
        }
    }
}