{
  "contractName": "ContractKeeper",
  "abi": [
    {
      "inputs": [],
      "stateMutability": "nonpayable",
      "type": "constructor"
    },
    {
      "anonymous": false,
      "inputs": [
        {
          "indexed": true,
          "internalType": "address",
          "name": "previousOwner",
          "type": "address"
        },
        {
          "indexed": true,
          "internalType": "address",
          "name": "newOwner",
          "type": "address"
        }
      ],
      "name": "OwnershipTransferred",
      "type": "event"
    },
    {
      "anonymous": false,
      "inputs": [
        {
          "indexed": false,
          "internalType": "uint256",
          "name": "lchash",
          "type": "uint256"
        }
      ],
      "name": "legalContractAdded",
      "type": "event"
    },
    {
      "anonymous": false,
      "inputs": [
        {
          "indexed": false,
          "internalType": "uint256",
          "name": "lchash",
          "type": "uint256"
        },
        {
          "indexed": false,
          "internalType": "address",
          "name": "signer",
          "type": "address"
        }
      ],
      "name": "legalContractSigned",
      "type": "event"
    },
    {
      "inputs": [],
      "name": "owner",
      "outputs": [
        {
          "internalType": "address",
          "name": "",
          "type": "address"
        }
      ],
      "stateMutability": "view",
      "type": "function",
      "constant": true
    },
    {
      "inputs": [],
      "name": "renounceOwnership",
      "outputs": [],
      "stateMutability": "nonpayable",
      "type": "function"
    },
    {
      "inputs": [
        {
          "internalType": "address",
          "name": "newOwner",
          "type": "address"
        }
      ],
      "name": "transferOwnership",
      "outputs": [],
      "stateMutability": "nonpayable",
      "type": "function"
    },
    {
      "inputs": [
        {
          "internalType": "uint256",
          "name": "lchash",
          "type": "uint256"
        }
      ],
      "name": "getContractSigners",
      "outputs": [
        {
          "internalType": "address[]",
          "name": "",
          "type": "address[]"
        },
        {
          "internalType": "string[]",
          "name": "",
          "type": "string[]"
        }
      ],
      "stateMutability": "view",
      "type": "function",
      "constant": true
    },
    {
      "inputs": [
        {
          "internalType": "uint256",
          "name": "lchash",
          "type": "uint256"
        },
        {
          "internalType": "address[]",
          "name": "signers",
          "type": "address[]"
        },
        {
          "internalType": "string[]",
          "name": "names",
          "type": "string[]"
        }
      ],
      "name": "addLegalContract",
      "outputs": [
        {
          "internalType": "bool",
          "name": "",
          "type": "bool"
        }
      ],
      "stateMutability": "payable",
      "type": "function",
      "payable": true
    },
    {
      "inputs": [
        {
          "internalType": "uint256",
          "name": "lchash",
          "type": "uint256"
        }
      ],
      "name": "getLegalContract",
      "outputs": [
        {
          "components": [
            {
              "internalType": "address[]",
              "name": "signers",
              "type": "address[]"
            },
            {
              "internalType": "string[]",
              "name": "signersNames",
              "type": "string[]"
            },
            {
              "internalType": "uint256",
              "name": "numSigners",
              "type": "uint256"
            },
            {
              "internalType": "enum ContractKeeper.Status",
              "name": "status",
              "type": "uint8"
            }
          ],
          "internalType": "struct ContractKeeper.LegalContract",
          "name": "",
          "type": "tuple"
        },
        {
          "internalType": "bool[]",
          "name": "",
          "type": "bool[]"
        }
      ],
      "stateMutability": "view",
      "type": "function",
      "constant": true
    },
    {
      "inputs": [
        {
          "internalType": "uint256",
          "name": "lchash",
          "type": "uint256"
        }
      ],
      "name": "signContract",
      "outputs": [
        {
          "internalType": "bool",
          "name": "",
          "type": "bool"
        }
      ],
      "stateMutability": "nonpayable",
      "type": "function"
    },
    {
      "inputs": [
        {
          "internalType": "uint256",
          "name": "lchash",
          "type": "uint256"
        }
      ],
      "name": "removeContract",
      "outputs": [],
      "stateMutability": "nonpayable",
      "type": "function"
    },
    {
      "inputs": [],
      "name": "destroyContract",
      "outputs": [],
      "stateMutability": "nonpayable",
      "type": "function"
    }
  ],
  "bytecode": "0x60806040523480156200001157600080fd5b5062000032620000266200003860201b60201c565b6200004060201b60201c565b62000104565b600033905090565b60008060009054906101000a900473ffffffffffffffffffffffffffffffffffffffff169050816000806101000a81548173ffffffffffffffffffffffffffffffffffffffff021916908373ffffffffffffffffffffffffffffffffffffffff1602179055508173ffffffffffffffffffffffffffffffffffffffff168173ffffffffffffffffffffffffffffffffffffffff167f8be0079c531659141344cd1fd0a4f28419497f9722a3daafe3b4186f6b6457e060405160405180910390a35050565b6124d680620001146000396000f3fe6080604052600436106100865760003560e01c80638da5cb5b116100595780638da5cb5b146101205780639537e8d11461014b57806397a371d614610188578063c2838a27146101c6578063f2fde38b146101f657610086565b8063092a5cce1461008b578063715018a6146100a25780637aa66dd3146100b95780637cca3b06146100f7575b600080fd5b34801561009757600080fd5b506100a061021f565b005b3480156100ae57600080fd5b506100b76102b4565b005b3480156100c557600080fd5b506100e060048036038101906100db9190611535565b61033c565b6040516100ee929190611967565b60405180910390f35b34801561010357600080fd5b5061011e60048036038101906101199190611535565b61072a565b005b34801561012c57600080fd5b506101356107a9565b60405161014291906119ad565b60405180910390f35b34801561015757600080fd5b50610172600480360381019061016d9190611535565b6107d2565b60405161017f91906119d7565b60405180910390f35b34801561019457600080fd5b506101af60048036038101906101aa9190611535565b610af5565b6040516101bd929190611ae7565b60405180910390f35b6101e060048036038101906101db9190611bd9565b610d14565b6040516101ed91906119d7565b60405180910390f35b34801561020257600080fd5b5061021d60048036038101906102189190611c9a565b6110fc565b005b6102276111f4565b73ffffffffffffffffffffffffffffffffffffffff166102456107a9565b73ffffffffffffffffffffffffffffffffffffffff161461029b576040517f08c379a000000000000000000000000000000000000000000000000000000000815260040161029290611d24565b60405180910390fd5b3373ffffffffffffffffffffffffffffffffffffffff16ff5b6102bc6111f4565b73ffffffffffffffffffffffffffffffffffffffff166102da6107a9565b73ffffffffffffffffffffffffffffffffffffffff1614610330576040517f08c379a000000000000000000000000000000000000000000000000000000000815260040161032790611d24565b60405180910390fd5b61033a60006111fc565b565b6103446112c0565b6060826000600281111561035b5761035a6117bc565b5b6002600083815260200190815260200160002060030160009054906101000a900460ff166002811115610391576103906117bc565b5b14156103d2576040517f08c379a00000000000000000000000000000000000000000000000000000000081526004016103c990611d90565b60405180910390fd5b6000600260008681526020019081526020016000206000018054905067ffffffffffffffff81111561040757610406611db0565b5b6040519080825280602002602001820160405280156104355781602001602082028036833780820191505090505b50905060005b60026000878152602001908152602001600020600001805490508160ff16101561055057600360008781526020019081526020016000206000600260008981526020019081526020016000206000018360ff168154811061049f5761049e611ddf565b5b9060005260206000200160009054906101000a900473ffffffffffffffffffffffffffffffffffffffff1673ffffffffffffffffffffffffffffffffffffffff1673ffffffffffffffffffffffffffffffffffffffff16815260200190815260200160002060000160019054906101000a900460ff16828260ff168151811061052b5761052a611ddf565b5b602002602001019015159081151581525050808061054890611e4a565b91505061043b565b50600260008681526020019081526020016000208181604051806080016040529081600082018054806020026020016040519081016040528092919081815260200182805480156105f657602002820191906000526020600020905b8160009054906101000a900473ffffffffffffffffffffffffffffffffffffffff1673ffffffffffffffffffffffffffffffffffffffff16815260200190600101908083116105ac575b5050505050815260200160018201805480602002602001604051908101604052809291908181526020016000905b828210156106d057838290600052602060002001805461064390611ea3565b80601f016020809104026020016040519081016040528092919081815260200182805461066f90611ea3565b80156106bc5780601f10610691576101008083540402835291602001916106bc565b820191906000526020600020905b81548152906001019060200180831161069f57829003601f168201915b505050505081526020019060010190610624565b505050508152602001600282015481526020016003820160009054906101000a900460ff166002811115610707576107066117bc565b5b6002811115610719576107186117bc565b5b815250509150935093505050915091565b6107326111f4565b73ffffffffffffffffffffffffffffffffffffffff166107506107a9565b73ffffffffffffffffffffffffffffffffffffffff16146107a6576040517f08c379a000000000000000000000000000000000000000000000000000000000815260040161079d90611d24565b60405180910390fd5b50565b60008060009054906101000a900473ffffffffffffffffffffffffffffffffffffffff16905090565b6000816003600082815260200190815260200160002060003373ffffffffffffffffffffffffffffffffffffffff1673ffffffffffffffffffffffffffffffffffffffff16815260200190815260200160002060000160009054906101000a900460ff16610875576040517f08c379a000000000000000000000000000000000000000000000000000000000815260040161086c90611f47565b60405180910390fd5b826001600281111561088a576108896117bc565b5b6002600083815260200190815260200160002060030160009054906101000a900460ff1660028111156108c0576108bf6117bc565b5b14610900576040517f08c379a00000000000000000000000000000000000000000000000000000000081526004016108f790611d90565b60405180910390fd5b836003600082815260200190815260200160002060003373ffffffffffffffffffffffffffffffffffffffff1673ffffffffffffffffffffffffffffffffffffffff16815260200190815260200160002060000160019054906101000a900460ff16156109a2576040517f08c379a000000000000000000000000000000000000000000000000000000000815260040161099990611fb3565b60405180910390fd5b60016003600087815260200190815260200160002060003373ffffffffffffffffffffffffffffffffffffffff1673ffffffffffffffffffffffffffffffffffffffff16815260200190815260200160002060000160016101000a81548160ff021916908315150217905550600260008681526020019081526020016000206002016000815480929190610a3590611fd3565b9190505550600260008681526020019081526020016000206000018054905060026000878152602001908152602001600020600201541415610ab057600280600087815260200190815260200160002060030160006101000a81548160ff02191690836002811115610aaa57610aa96117bc565b5b02179055505b7f3f62b5aa439f9e317418314cb023fca545f36e1cf84c329b1576f89c7bcce9f68533604051610ae192919061202b565b60405180910390a160019350505050919050565b6060808260016002811115610b0d57610b0c6117bc565b5b6002600083815260200190815260200160002060030160009054906101000a900460ff166002811115610b4357610b426117bc565b5b14610b83576040517f08c379a0000000000000000000000000000000000000000000000000000000008152600401610b7a90611d90565b60405180910390fd5b600260008581526020019081526020016000206000016002600086815260200190815260200160002060010181805480602002602001604051908101604052809291908181526020018280548015610c3057602002820191906000526020600020905b8160009054906101000a900473ffffffffffffffffffffffffffffffffffffffff1673ffffffffffffffffffffffffffffffffffffffff1681526020019060010190808311610be6575b5050505050915080805480602002602001604051908101604052809291908181526020016000905b82821015610d04578382906000526020600020018054610c7790611ea3565b80601f0160208091040260200160405190810160405280929190818152602001828054610ca390611ea3565b8015610cf05780601f10610cc557610100808354040283529160200191610cf0565b820191906000526020600020905b815481529060010190602001808311610cd357829003601f168201915b505050505081526020019060010190610c58565b5050505090509250925050915091565b600084848484818190508484905014610d62576040517f08c379a0000000000000000000000000000000000000000000000000000000008152600401610d59906120c6565b60405180910390fd5b600184849050118015610d79575060038484905011155b610db8576040517f08c379a0000000000000000000000000000000000000000000000000000000008152600401610daf90612132565b60405180910390fd5b8960006002811115610dcd57610dcc6117bc565b5b6002600083815260200190815260200160002060030160009054906101000a900460ff166002811115610e0357610e026117bc565b5b14610e43576040517f08c379a0000000000000000000000000000000000000000000000000000000008152600401610e3a9061219e565b60405180910390fd5b6001341015610e87576040517f08c379a0000000000000000000000000000000000000000000000000000000008152600401610e7e9061220a565b60405180910390fd5b60005b8a8a9050811015610f7d57604051806040016040528060011515815260200160001515815250600360008e815260200190815260200160002060008d8d85818110610ed857610ed7611ddf565b5b9050602002016020810190610eed9190611c9a565b73ffffffffffffffffffffffffffffffffffffffff1673ffffffffffffffffffffffffffffffffffffffff16815260200190815260200160002060008201518160000160006101000a81548160ff02191690831515021790555060208201518160000160016101000a81548160ff0219169083151502179055509050508080610f7590611fd3565b915050610e8a565b5060405180608001604052808b8b80806020026020016040519081016040528093929190818152602001838360200280828437600081840152601f19601f820116905080830192505050505050508152602001898990610fdd91906123de565b81526020016000815260200160016002811115610ffd57610ffc6117bc565b5b815250600260008d8152602001908152602001600020600082015181600001908051906020019061102f9291906112fa565b50602082015181600101908051906020019061104c929190611384565b506040820151816002015560608201518160030160006101000a81548160ff02191690836002811115611082576110816117bc565b5b021790555090505060048b90806001815401808255809150506001900390600052602060002001600090919091909150557fc8864f3476f2298d96ccec666004a3b4a65561aaade1ce77f4782fe20a06f84e8b6040516110e291906123f3565b60405180910390a160019550505050505095945050505050565b6111046111f4565b73ffffffffffffffffffffffffffffffffffffffff166111226107a9565b73ffffffffffffffffffffffffffffffffffffffff1614611178576040517f08c379a000000000000000000000000000000000000000000000000000000000815260040161116f90611d24565b60405180910390fd5b600073ffffffffffffffffffffffffffffffffffffffff168173ffffffffffffffffffffffffffffffffffffffff1614156111e8576040517f08c379a00000000000000000000000000000000000000000000000000000000081526004016111df90612480565b60405180910390fd5b6111f1816111fc565b50565b600033905090565b60008060009054906101000a900473ffffffffffffffffffffffffffffffffffffffff169050816000806101000a81548173ffffffffffffffffffffffffffffffffffffffff021916908373ffffffffffffffffffffffffffffffffffffffff1602179055508173ffffffffffffffffffffffffffffffffffffffff168173ffffffffffffffffffffffffffffffffffffffff167f8be0079c531659141344cd1fd0a4f28419497f9722a3daafe3b4186f6b6457e060405160405180910390a35050565b6040518060800160405280606081526020016060815260200160008152602001600060028111156112f4576112f36117bc565b5b81525090565b828054828255906000526020600020908101928215611373579160200282015b828111156113725782518260006101000a81548173ffffffffffffffffffffffffffffffffffffffff021916908373ffffffffffffffffffffffffffffffffffffffff1602179055509160200191906001019061131a565b5b50905061138091906113e4565b5090565b8280548282559060005260206000209081019282156113d3579160200282015b828111156113d25782518290805190602001906113c2929190611401565b50916020019190600101906113a4565b5b5090506113e09190611487565b5090565b5b808211156113fd5760008160009055506001016113e5565b5090565b82805461140d90611ea3565b90600052602060002090601f01602090048101928261142f5760008555611476565b82601f1061144857805160ff1916838001178555611476565b82800160010185558215611476579182015b8281111561147557825182559160200191906001019061145a565b5b50905061148391906113e4565b5090565b5b808211156114a7576000818161149e91906114ab565b50600101611488565b5090565b5080546114b790611ea3565b6000825580601f106114c957506114e8565b601f0160209004906000526020600020908101906114e791906113e4565b5b50565b6000604051905090565b600080fd5b600080fd5b6000819050919050565b611512816114ff565b811461151d57600080fd5b50565b60008135905061152f81611509565b92915050565b60006020828403121561154b5761154a6114f5565b5b600061155984828501611520565b91505092915050565b600081519050919050565b600082825260208201905092915050565b6000819050602082019050919050565b600073ffffffffffffffffffffffffffffffffffffffff82169050919050565b60006115b98261158e565b9050919050565b6115c9816115ae565b82525050565b60006115db83836115c0565b60208301905092915050565b6000602082019050919050565b60006115ff82611562565b611609818561156d565b93506116148361157e565b8060005b8381101561164557815161162c88826115cf565b9750611637836115e7565b925050600181019050611618565b5085935050505092915050565b600081519050919050565b600082825260208201905092915050565b6000819050602082019050919050565b600081519050919050565b600082825260208201905092915050565b60005b838110156116b857808201518184015260208101905061169d565b838111156116c7576000848401525b50505050565b6000601f19601f8301169050919050565b60006116e98261167e565b6116f38185611689565b935061170381856020860161169a565b61170c816116cd565b840191505092915050565b600061172383836116de565b905092915050565b6000602082019050919050565b600061174382611652565b61174d818561165d565b93508360208202850161175f8561166e565b8060005b8581101561179b578484038952815161177c8582611717565b94506117878361172b565b925060208a01995050600181019050611763565b50829750879550505050505092915050565b6117b6816114ff565b82525050565b7f4e487b7100000000000000000000000000000000000000000000000000000000600052602160045260246000fd5b600381106117fc576117fb6117bc565b5b50565b600081905061180d826117eb565b919050565b600061181d826117ff565b9050919050565b61182d81611812565b82525050565b6000608083016000830151848203600086015261185082826115f4565b9150506020830151848203602086015261186a8282611738565b915050604083015161187f60408601826117ad565b5060608301516118926060860182611824565b508091505092915050565b600081519050919050565b600082825260208201905092915050565b6000819050602082019050919050565b60008115159050919050565b6118de816118c9565b82525050565b60006118f083836118d5565b60208301905092915050565b6000602082019050919050565b60006119148261189d565b61191e81856118a8565b9350611929836118b9565b8060005b8381101561195a57815161194188826118e4565b975061194c836118fc565b92505060018101905061192d565b5085935050505092915050565b600060408201905081810360008301526119818185611833565b905081810360208301526119958184611909565b90509392505050565b6119a7816115ae565b82525050565b60006020820190506119c2600083018461199e565b92915050565b6119d1816118c9565b82525050565b60006020820190506119ec60008301846119c8565b92915050565b600082825260208201905092915050565b6000611a0e82611562565b611a1881856119f2565b9350611a238361157e565b8060005b83811015611a54578151611a3b88826115cf565b9750611a46836115e7565b925050600181019050611a27565b5085935050505092915050565b600082825260208201905092915050565b6000611a7d82611652565b611a878185611a61565b935083602082028501611a998561166e565b8060005b85811015611ad55784840389528151611ab68582611717565b9450611ac18361172b565b925060208a01995050600181019050611a9d565b50829750879550505050505092915050565b60006040820190508181036000830152611b018185611a03565b90508181036020830152611b158184611a72565b90509392505050565b600080fd5b600080fd5b600080fd5b60008083601f840112611b4357611b42611b1e565b5b8235905067ffffffffffffffff811115611b6057611b5f611b23565b5b602083019150836020820283011115611b7c57611b7b611b28565b5b9250929050565b60008083601f840112611b9957611b98611b1e565b5b8235905067ffffffffffffffff811115611bb657611bb5611b23565b5b602083019150836020820283011115611bd257611bd1611b28565b5b9250929050565b600080600080600060608688031215611bf557611bf46114f5565b5b6000611c0388828901611520565b955050602086013567ffffffffffffffff811115611c2457611c236114fa565b5b611c3088828901611b2d565b9450945050604086013567ffffffffffffffff811115611c5357611c526114fa565b5b611c5f88828901611b83565b92509250509295509295909350565b611c77816115ae565b8114611c8257600080fd5b50565b600081359050611c9481611c6e565b92915050565b600060208284031215611cb057611caf6114f5565b5b6000611cbe84828501611c85565b91505092915050565b600082825260208201905092915050565b7f4f776e61626c653a2063616c6c6572206973206e6f7420746865206f776e6572600082015250565b6000611d0e602083611cc7565b9150611d1982611cd8565b602082019050919050565b60006020820190508181036000830152611d3d81611d01565b9050919050565b7f436f6e7472616374206e6f742065786973740000000000000000000000000000600082015250565b6000611d7a601283611cc7565b9150611d8582611d44565b602082019050919050565b60006020820190508181036000830152611da981611d6d565b9050919050565b7f4e487b7100000000000000000000000000000000000000000000000000000000600052604160045260246000fd5b7f4e487b7100000000000000000000000000000000000000000000000000000000600052603260045260246000fd5b7f4e487b7100000000000000000000000000000000000000000000000000000000600052601160045260246000fd5b600060ff82169050919050565b6000611e5582611e3d565b915060ff821415611e6957611e68611e0e565b5b600182019050919050565b7f4e487b7100000000000000000000000000000000000000000000000000000000600052602260045260246000fd5b60006002820490506001821680611ebb57607f821691505b60208210811415611ecf57611ece611e74565b5b50919050565b7f53656e646572206973206e6f74207369676e6572206f66207468697320636f6e60008201527f7472616374000000000000000000000000000000000000000000000000000000602082015250565b6000611f31602583611cc7565b9150611f3c82611ed5565b604082019050919050565b60006020820190508181036000830152611f6081611f24565b9050919050565b7f53656e64657220616c7265616479207369676e65640000000000000000000000600082015250565b6000611f9d601583611cc7565b9150611fa882611f67565b602082019050919050565b60006020820190508181036000830152611fcc81611f90565b9050919050565b6000611fde826114ff565b91507fffffffffffffffffffffffffffffffffffffffffffffffffffffffffffffffff82141561201157612010611e0e565b5b600182019050919050565b612025816114ff565b82525050565b6000604082019050612040600083018561201c565b61204d602083018461199e565b9392505050565b7f4e756d626572206f66207369676e65727320616e64206e616d6573206172652060008201527f6e6f7220657175616c0000000000000000000000000000000000000000000000602082015250565b60006120b0602983611cc7565b91506120bb82612054565b604082019050919050565b600060208201905081810360008301526120df816120a3565b9050919050565b7f4976616c6964206e756d6572206f66207369676e657273000000000000000000600082015250565b600061211c601783611cc7565b9150612127826120e6565b602082019050919050565b6000602082019050818103600083015261214b8161210f565b9050919050565b7f436f6e747261637420616c726561647920657869737400000000000000000000600082015250565b6000612188601683611cc7565b915061219382612152565b602082019050919050565b600060208201905081810360008301526121b78161217b565b9050919050565b7f4e6f7420456e6f7567682066756e647300000000000000000000000000000000600082015250565b60006121f4601083611cc7565b91506121ff826121be565b602082019050919050565b60006020820190508181036000830152612223816121e7565b9050919050565b612233826116cd565b810181811067ffffffffffffffff8211171561225257612251611db0565b5b80604052505050565b60006122656114eb565b9050612271828261222a565b919050565b600067ffffffffffffffff82111561229157612290611db0565b5b602082029050602081019050919050565b600080fd5b600067ffffffffffffffff8211156122c2576122c1611db0565b5b6122cb826116cd565b9050602081019050919050565b82818337600083830152505050565b60006122fa6122f5846122a7565b61225b565b905082815260208101848484011115612316576123156122a2565b5b6123218482856122d8565b509392505050565b600082601f83011261233e5761233d611b1e565b5b813561234e8482602086016122e7565b91505092915050565b600061236a61236584612276565b61225b565b9050808382526020820190506020840283018581111561238d5761238c611b28565b5b835b818110156123d457803567ffffffffffffffff8111156123b2576123b1611b1e565b5b8086016123bf8982612329565b8552602085019450505060208101905061238f565b5050509392505050565b60006123eb368484612357565b905092915050565b6000602082019050612408600083018461201c565b92915050565b7f4f776e61626c653a206e6577206f776e657220697320746865207a65726f206160008201527f6464726573730000000000000000000000000000000000000000000000000000602082015250565b600061246a602683611cc7565b91506124758261240e565b604082019050919050565b600060208201905081810360008301526124998161245d565b905091905056fea2646970667358221220acb448f40c4f001fcb492778e629d8a239e24003334bb51ef6ba936e2d89708a64736f6c63430008090033",
  "immutableReferences": {},
  "source": "// SPDX-License-Identifier: MIT\npragma solidity 0.8.9 ;\n//import \"https://github.com/OpenZeppelin/openzeppelin-contracts/blob/master/contracts/access/Ownable.sol\";\nimport \"@openzeppelin/contracts/access/Ownable.sol\";\ncontract ContractKeeper is Ownable{\n\n  enum Status { notCreated, created, signed }\n  uint256 balance;\n\n  struct LegalContract {\n    address[] signers;\n    string[] signersNames;\n    uint256 numSigners;\n    Status status;\n  }\n  \n struct SigControl {\n     bool isSigner;\n     bool hasSigned;\n }\n \n  mapping (uint => LegalContract) legalContracts; //lchash => LegalContract\n  mapping (uint => mapping (address => SigControl)) sigControl; //signer => Contract => signature status\n  //mapping (address => Signer) signersRegister;\n  uint[] contractsIdx;\n\n  constructor()  {\n  }\n\n  modifier isSigner(uint256 lchash){\n    require(sigControl[lchash][msg.sender].isSigner, \"Sender is not signer of this contract\");\n    _;\n  }\n\n  modifier isCreated(uint256 lchash){\n    require(legalContracts[lchash].status == Status.created,\"Contract not exist\");\n    _;\n  }\n\n  modifier exist(uint256 lchash){\n    require(legalContracts[lchash].status != Status.notCreated,\"Contract not exist\");\n    _;\n  }\n\n  modifier verifySigners( address[] calldata signers,string[] calldata names){\n    require(signers.length == names.length, \"Number of signers and names are nor equal\");\n    require(signers.length >1 && signers.length <= 3,\"Ivalid numer of signers\");\n    _;  \n  }\n\n  modifier isNotCreated(uint256 lchash){\n    require(legalContracts[lchash].status == Status.notCreated, \"Contract already exist\");\n    _;\n  }\n  modifier notSigned(uint256 lchash){\n    require(!sigControl[lchash][msg.sender].hasSigned , \"Sender already signed\");\n    _;\n  }\n\n  event legalContractAdded(uint256 lchash);\n  event legalContractSigned(uint256 lchash, address signer);\n\n  function getContractSigners(uint256 lchash)\n    public\n    view \n    isCreated(lchash)\n    returns(address[] memory,string[] memory )\n  {\n      return (legalContracts[lchash].signers,legalContracts[lchash].signersNames);\n  }\n  \n  function addLegalContract ( uint256 lchash ,address[] calldata signers,string[] calldata names )\n    public\n    payable\n    verifySigners(signers,names)\n    isNotCreated(lchash)\n    returns(bool)\n  {\n    require(msg.value >= 1 wei,\"Not Enough funds\");\n    for (uint i = 0; i < signers.length; i++){\n        sigControl[lchash][signers[i]] = SigControl({\n            isSigner: true,\n            hasSigned: false\n        });\n        \n    }\n    legalContracts[lchash] = LegalContract({\n        signers: signers,\n        signersNames: names,\n        numSigners: 0,\n        status: Status.created\n    });\n    contractsIdx.push(lchash);\n    emit legalContractAdded(lchash);\n    return true;\n  }\n  \n  function getLegalContract(uint256 lchash)\n    public\n    view\n    exist(lchash)\n    returns(LegalContract memory, bool[] memory){\n      bool[] memory signs = new bool[](legalContracts[lchash].signers.length);\n      for (uint8 i=0;i<legalContracts[lchash].signers.length;i++){\n        signs[i]=sigControl[lchash][legalContracts[lchash].signers[i]].hasSigned;\n\n      }\n    return (legalContracts[lchash], signs);\n  }\n  \n  function signContract(uint256 lchash) \n    public\n    isSigner(lchash)\n    isCreated(lchash)\n    notSigned(lchash)\n    returns(bool)\n  {\n       \n      sigControl[lchash][msg.sender].hasSigned = true;\n      legalContracts[lchash].numSigners ++;\n      if (legalContracts[lchash].numSigners == legalContracts[lchash].signers.length){\n          legalContracts[lchash].status = Status.signed;\n      }\n      emit legalContractSigned(lchash, msg.sender);\n      return true;\n  }\n  \n  function removeContract  (uint256 lchash) onlyOwner public {\n    //TODO\n  }\n\n  function destroyContract() onlyOwner public {\n    selfdestruct(payable(msg.sender));\n  }\n}\n",
  "sourcePath": "/home/wrbp/BC/ContractKeeper/contracts/ContractKeeper.sol",
  "compiler": {
    "name": "solc",
    "version": "0.8.9+commit.e5eed63a.Emscripten.clang"
  },
  "schemaVersion": "3.4.3",
  "updatedAt": "2021-11-23T22:30:53.261Z",
  "networkType": "ethereum",
  "devdoc": {
    "kind": "dev",
    "methods": {
      "owner()": {
        "details": "Returns the address of the current owner."
      },
      "renounceOwnership()": {
        "details": "Leaves the contract without owner. It will not be possible to call `onlyOwner` functions anymore. Can only be called by the current owner. NOTE: Renouncing ownership will leave the contract without an owner, thereby removing any functionality that is only available to the owner."
      },
      "transferOwnership(address)": {
        "details": "Transfers ownership of the contract to a new account (`newOwner`). Can only be called by the current owner."
      }
    },
    "version": 1
  },
  "userdoc": {
    "kind": "user",
    "methods": {},
    "version": 1
  }
}