{
  "contractName": "ContractKeeper",
  "abi": [
    {
      "inputs": [],
      "stateMutability": "nonpayable",
      "type": "constructor"
    },
    {
      "anonymous": false,
      "inputs": [
        {
          "indexed": false,
          "internalType": "uint256",
          "name": "lchash",
          "type": "uint256"
        }
      ],
      "name": "LegalContractAdded",
      "type": "event"
    },
    {
      "anonymous": false,
      "inputs": [
        {
          "indexed": false,
          "internalType": "uint256",
          "name": "lchash",
          "type": "uint256"
        }
      ],
      "name": "LegalContractRmoved",
      "type": "event"
    },
    {
      "anonymous": false,
      "inputs": [
        {
          "indexed": false,
          "internalType": "uint256",
          "name": "lchash",
          "type": "uint256"
        },
        {
          "indexed": false,
          "internalType": "address",
          "name": "signer",
          "type": "address"
        }
      ],
      "name": "LegalContractSigned",
      "type": "event"
    },
    {
      "anonymous": false,
      "inputs": [
        {
          "indexed": true,
          "internalType": "address",
          "name": "previousOwner",
          "type": "address"
        },
        {
          "indexed": true,
          "internalType": "address",
          "name": "newOwner",
          "type": "address"
        }
      ],
      "name": "OwnershipTransferred",
      "type": "event"
    },
    {
      "inputs": [
        {
          "internalType": "uint256",
          "name": "",
          "type": "uint256"
        }
      ],
      "name": "contractsList",
      "outputs": [
        {
          "internalType": "uint256",
          "name": "",
          "type": "uint256"
        }
      ],
      "stateMutability": "view",
      "type": "function",
      "constant": true
    },
    {
      "inputs": [],
      "name": "owner",
      "outputs": [
        {
          "internalType": "address",
          "name": "",
          "type": "address"
        }
      ],
      "stateMutability": "view",
      "type": "function",
      "constant": true
    },
    {
      "inputs": [],
      "name": "renounceOwnership",
      "outputs": [],
      "stateMutability": "nonpayable",
      "type": "function"
    },
    {
      "inputs": [
        {
          "internalType": "address",
          "name": "newOwner",
          "type": "address"
        }
      ],
      "name": "transferOwnership",
      "outputs": [],
      "stateMutability": "nonpayable",
      "type": "function"
    },
    {
      "inputs": [
        {
          "internalType": "uint256",
          "name": "lchash",
          "type": "uint256"
        },
        {
          "internalType": "address[]",
          "name": "signers",
          "type": "address[]"
        },
        {
          "internalType": "string[]",
          "name": "names",
          "type": "string[]"
        }
      ],
      "name": "addLegalContract",
      "outputs": [
        {
          "internalType": "bool",
          "name": "",
          "type": "bool"
        }
      ],
      "stateMutability": "payable",
      "type": "function",
      "payable": true
    },
    {
      "inputs": [
        {
          "internalType": "uint256",
          "name": "lchash",
          "type": "uint256"
        }
      ],
      "name": "getLegalContract",
      "outputs": [
        {
          "components": [
            {
              "internalType": "address[]",
              "name": "signers",
              "type": "address[]"
            },
            {
              "internalType": "string[]",
              "name": "signersNames",
              "type": "string[]"
            },
            {
              "internalType": "uint256",
              "name": "numSigners",
              "type": "uint256"
            },
            {
              "internalType": "enum ContractKeeper.State",
              "name": "state",
              "type": "uint8"
            },
            {
              "internalType": "uint256",
              "name": "index",
              "type": "uint256"
            }
          ],
          "internalType": "struct ContractKeeper.LegalContract",
          "name": "",
          "type": "tuple"
        },
        {
          "internalType": "bool[]",
          "name": "",
          "type": "bool[]"
        }
      ],
      "stateMutability": "view",
      "type": "function",
      "constant": true
    },
    {
      "inputs": [
        {
          "internalType": "uint256",
          "name": "lchash",
          "type": "uint256"
        }
      ],
      "name": "signContract",
      "outputs": [
        {
          "internalType": "bool",
          "name": "",
          "type": "bool"
        }
      ],
      "stateMutability": "nonpayable",
      "type": "function"
    },
    {
      "inputs": [
        {
          "internalType": "uint256",
          "name": "lchash",
          "type": "uint256"
        }
      ],
      "name": "removeContract",
      "outputs": [
        {
          "internalType": "bool",
          "name": "",
          "type": "bool"
        }
      ],
      "stateMutability": "nonpayable",
      "type": "function"
    },
    {
      "inputs": [],
      "name": "destroyContract",
      "outputs": [],
      "stateMutability": "nonpayable",
      "type": "function"
    }
  ],
  "bytecode": "0x60806040523480156200001157600080fd5b5062000032620000266200003860201b60201c565b6200004060201b60201c565b62000104565b600033905090565b60008060009054906101000a900473ffffffffffffffffffffffffffffffffffffffff169050816000806101000a81548173ffffffffffffffffffffffffffffffffffffffff021916908373ffffffffffffffffffffffffffffffffffffffff1602179055508173ffffffffffffffffffffffffffffffffffffffff168173ffffffffffffffffffffffffffffffffffffffff167f8be0079c531659141344cd1fd0a4f28419497f9722a3daafe3b4186f6b6457e060405160405180910390a35050565b61254080620001146000396000f3fe6080604052600436106100865760003560e01c80638da5cb5b116100595780638da5cb5b146101345780639537e8d11461015f578063c2838a271461019c578063f2fde38b146101cc578063f8079052146101f557610086565b8063092a5cce1461008b578063715018a6146100a25780637aa66dd3146100b95780637cca3b06146100f7575b600080fd5b34801561009757600080fd5b506100a0610232565b005b3480156100ae57600080fd5b506100b76102c7565b005b3480156100c557600080fd5b506100e060048036038101906100db9190611655565b61034f565b6040516100ee929190611a9a565b60405180910390f35b34801561010357600080fd5b5061011e60048036038101906101199190611655565b610747565b60405161012b9190611ae0565b60405180910390f35b34801561014057600080fd5b50610149610a66565b6040516101569190611b0a565b60405180910390f35b34801561016b57600080fd5b5061018660048036038101906101819190611655565b610a8f565b6040516101939190611ae0565b60405180910390f35b6101b660048036038101906101b19190611be0565b610db2565b6040516101c39190611ae0565b60405180910390f35b3480156101d857600080fd5b506101f360048036038101906101ee9190611ca1565b6111af565b005b34801561020157600080fd5b5061021c60048036038101906102179190611655565b6112a7565b6040516102299190611cdd565b60405180910390f35b61023a6112cb565b73ffffffffffffffffffffffffffffffffffffffff16610258610a66565b73ffffffffffffffffffffffffffffffffffffffff16146102ae576040517f08c379a00000000000000000000000000000000000000000000000000000000081526004016102a590611d55565b60405180910390fd5b3373ffffffffffffffffffffffffffffffffffffffff16ff5b6102cf6112cb565b73ffffffffffffffffffffffffffffffffffffffff166102ed610a66565b73ffffffffffffffffffffffffffffffffffffffff1614610343576040517f08c379a000000000000000000000000000000000000000000000000000000000815260040161033a90611d55565b60405180910390fd5b61034d60006112d3565b565b610357611397565b6060826000600281111561036e5761036d6118dc565b5b6002600083815260200190815260200160002060030160009054906101000a900460ff1660028111156103a4576103a36118dc565b5b14156103e5576040517f08c379a00000000000000000000000000000000000000000000000000000000081526004016103dc90611dc1565b60405180910390fd5b6000600260008681526020019081526020016000206000018054905067ffffffffffffffff81111561041a57610419611de1565b5b6040519080825280602002602001820160405280156104485781602001602082028036833780820191505090505b50905060005b60026000878152602001908152602001600020600001805490508160ff16101561056357600360008781526020019081526020016000206000600260008981526020019081526020016000206000018360ff16815481106104b2576104b1611e10565b5b9060005260206000200160009054906101000a900473ffffffffffffffffffffffffffffffffffffffff1673ffffffffffffffffffffffffffffffffffffffff1673ffffffffffffffffffffffffffffffffffffffff16815260200190815260200160002060000160019054906101000a900460ff16828260ff168151811061053e5761053d611e10565b5b602002602001019015159081151581525050808061055b90611e7b565b91505061044e565b506002600086815260200190815260200160002081816040518060a00160405290816000820180548060200260200160405190810160405280929190818152602001828054801561060957602002820191906000526020600020905b8160009054906101000a900473ffffffffffffffffffffffffffffffffffffffff1673ffffffffffffffffffffffffffffffffffffffff16815260200190600101908083116105bf575b5050505050815260200160018201805480602002602001604051908101604052809291908181526020016000905b828210156106e357838290600052602060002001805461065690611ed4565b80601f016020809104026020016040519081016040528092919081815260200182805461068290611ed4565b80156106cf5780601f106106a4576101008083540402835291602001916106cf565b820191906000526020600020905b8154815290600101906020018083116106b257829003601f168201915b505050505081526020019060010190610637565b505050508152602001600282015481526020016003820160009054906101000a900460ff16600281111561071a576107196118dc565b5b600281111561072c5761072b6118dc565b5b81526020016004820154815250509150935093505050915091565b6000816000600281111561075e5761075d6118dc565b5b6002600083815260200190815260200160002060030160009054906101000a900460ff166002811115610794576107936118dc565b5b14156107d5576040517f08c379a00000000000000000000000000000000000000000000000000000000081526004016107cc90611dc1565b60405180910390fd5b6107dd6112cb565b73ffffffffffffffffffffffffffffffffffffffff166107fb610a66565b73ffffffffffffffffffffffffffffffffffffffff1614610851576040517f08c379a000000000000000000000000000000000000000000000000000000000815260040161084890611d55565b60405180910390fd5b6000600260008581526020019081526020016000209050600060026000600460016004805490506108829190611f06565b8154811061089357610892611e10565b5b90600052602060002001548152602001908152602001600020905060048160040154815481106108c6576108c5611e10565b5b906000526020600020015460048360040154815481106108e9576108e8611e10565b5b9060005260206000200181905550600480548061090957610908611f3a565b5b6001900381819060005260206000200160009055905560005b82600001805490508110156109ff5760036000878152602001908152602001600020600084600001838154811061095c5761095b611e10565b5b9060005260206000200160009054906101000a900473ffffffffffffffffffffffffffffffffffffffff1673ffffffffffffffffffffffffffffffffffffffff1673ffffffffffffffffffffffffffffffffffffffff168152602001908152602001600020600080820160006101000a81549060ff02191690556000820160016101000a81549060ff0219169055505080806109f790611f69565b915050610922565b506002600086815260200190815260200160002060008082016000610a2491906113d8565b600182016000610a3491906113f9565b60028201600090556003820160006101000a81549060ff02191690556004820160009055505060019350505050919050565b60008060009054906101000a900473ffffffffffffffffffffffffffffffffffffffff16905090565b6000816003600082815260200190815260200160002060003373ffffffffffffffffffffffffffffffffffffffff1673ffffffffffffffffffffffffffffffffffffffff16815260200190815260200160002060000160009054906101000a900460ff16610b32576040517f08c379a0000000000000000000000000000000000000000000000000000000008152600401610b2990612024565b60405180910390fd5b8260016002811115610b4757610b466118dc565b5b6002600083815260200190815260200160002060030160009054906101000a900460ff166002811115610b7d57610b7c6118dc565b5b14610bbd576040517f08c379a0000000000000000000000000000000000000000000000000000000008152600401610bb490611dc1565b60405180910390fd5b836003600082815260200190815260200160002060003373ffffffffffffffffffffffffffffffffffffffff1673ffffffffffffffffffffffffffffffffffffffff16815260200190815260200160002060000160019054906101000a900460ff1615610c5f576040517f08c379a0000000000000000000000000000000000000000000000000000000008152600401610c5690612090565b60405180910390fd5b60016003600087815260200190815260200160002060003373ffffffffffffffffffffffffffffffffffffffff1673ffffffffffffffffffffffffffffffffffffffff16815260200190815260200160002060000160016101000a81548160ff021916908315150217905550600260008681526020019081526020016000206002016000815480929190610cf290611f69565b9190505550600260008681526020019081526020016000206000018054905060026000878152602001908152602001600020600201541415610d6d57600280600087815260200190815260200160002060030160006101000a81548160ff02191690836002811115610d6757610d666118dc565b5b02179055505b7f3a631f6d541ddaa58616a1351a3bfdb685300965fbe10bd918508711fed88fe18533604051610d9e9291906120b0565b60405180910390a160019350505050919050565b600084848484818190508484905014610e00576040517f08c379a0000000000000000000000000000000000000000000000000000000008152600401610df79061214b565b60405180910390fd5b600184849050118015610e17575060038484905011155b610e56576040517f08c379a0000000000000000000000000000000000000000000000000000000008152600401610e4d906121b7565b60405180910390fd5b8960006002811115610e6b57610e6a6118dc565b5b6002600083815260200190815260200160002060030160009054906101000a900460ff166002811115610ea157610ea06118dc565b5b14610ee1576040517f08c379a0000000000000000000000000000000000000000000000000000000008152600401610ed890612223565b60405180910390fd5b6001341015610f25576040517f08c379a0000000000000000000000000000000000000000000000000000000008152600401610f1c9061228f565b60405180910390fd5b60005b8a8a905081101561101b57604051806040016040528060011515815260200160001515815250600360008e815260200190815260200160002060008d8d85818110610f7657610f75611e10565b5b9050602002016020810190610f8b9190611ca1565b73ffffffffffffffffffffffffffffffffffffffff1673ffffffffffffffffffffffffffffffffffffffff16815260200190815260200160002060008201518160000160006101000a81548160ff02191690831515021790555060208201518160000160016101000a81548160ff021916908315150217905550905050808061101390611f69565b915050610f28565b506040518060a001604052808b8b80806020026020016040519081016040528093929190818152602001838360200280828437600081840152601f19601f82011690508083019250505050505050815260200189899061107b9190612463565b8152602001600081526020016001600281111561109b5761109a6118dc565b5b8152602001600480549050815250600260008d815260200190815260200160002060008201518160000190805190602001906110d892919061141a565b5060208201518160010190805190602001906110f59291906114a4565b506040820151816002015560608201518160030160006101000a81548160ff0219169083600281111561112b5761112a6118dc565b5b02179055506080820151816004015590505060048b90806001815401808255809150506001900390600052602060002001600090919091909150557f632ac77d09152d841f02467b002b00be9dc4d10aba119acc12df299d68e352a28b6040516111959190611cdd565b60405180910390a160019550505050505095945050505050565b6111b76112cb565b73ffffffffffffffffffffffffffffffffffffffff166111d5610a66565b73ffffffffffffffffffffffffffffffffffffffff161461122b576040517f08c379a000000000000000000000000000000000000000000000000000000000815260040161122290611d55565b60405180910390fd5b600073ffffffffffffffffffffffffffffffffffffffff168173ffffffffffffffffffffffffffffffffffffffff16141561129b576040517f08c379a0000000000000000000000000000000000000000000000000000000008152600401611292906124ea565b60405180910390fd5b6112a4816112d3565b50565b600481815481106112b757600080fd5b906000526020600020016000915090505481565b600033905090565b60008060009054906101000a900473ffffffffffffffffffffffffffffffffffffffff169050816000806101000a81548173ffffffffffffffffffffffffffffffffffffffff021916908373ffffffffffffffffffffffffffffffffffffffff1602179055508173ffffffffffffffffffffffffffffffffffffffff168173ffffffffffffffffffffffffffffffffffffffff167f8be0079c531659141344cd1fd0a4f28419497f9722a3daafe3b4186f6b6457e060405160405180910390a35050565b6040518060a00160405280606081526020016060815260200160008152602001600060028111156113cb576113ca6118dc565b5b8152602001600081525090565b50805460008255906000526020600020908101906113f69190611504565b50565b50805460008255906000526020600020908101906114179190611521565b50565b828054828255906000526020600020908101928215611493579160200282015b828111156114925782518260006101000a81548173ffffffffffffffffffffffffffffffffffffffff021916908373ffffffffffffffffffffffffffffffffffffffff1602179055509160200191906001019061143a565b5b5090506114a09190611504565b5090565b8280548282559060005260206000209081019282156114f3579160200282015b828111156114f25782518290805190602001906114e2929190611545565b50916020019190600101906114c4565b5b5090506115009190611521565b5090565b5b8082111561151d576000816000905550600101611505565b5090565b5b80821115611541576000818161153891906115cb565b50600101611522565b5090565b82805461155190611ed4565b90600052602060002090601f01602090048101928261157357600085556115ba565b82601f1061158c57805160ff19168380011785556115ba565b828001600101855582156115ba579182015b828111156115b957825182559160200191906001019061159e565b5b5090506115c79190611504565b5090565b5080546115d790611ed4565b6000825580601f106115e95750611608565b601f0160209004906000526020600020908101906116079190611504565b5b50565b6000604051905090565b600080fd5b600080fd5b6000819050919050565b6116328161161f565b811461163d57600080fd5b50565b60008135905061164f81611629565b92915050565b60006020828403121561166b5761166a611615565b5b600061167984828501611640565b91505092915050565b600081519050919050565b600082825260208201905092915050565b6000819050602082019050919050565b600073ffffffffffffffffffffffffffffffffffffffff82169050919050565b60006116d9826116ae565b9050919050565b6116e9816116ce565b82525050565b60006116fb83836116e0565b60208301905092915050565b6000602082019050919050565b600061171f82611682565b611729818561168d565b93506117348361169e565b8060005b8381101561176557815161174c88826116ef565b975061175783611707565b925050600181019050611738565b5085935050505092915050565b600081519050919050565b600082825260208201905092915050565b6000819050602082019050919050565b600081519050919050565b600082825260208201905092915050565b60005b838110156117d85780820151818401526020810190506117bd565b838111156117e7576000848401525b50505050565b6000601f19601f8301169050919050565b60006118098261179e565b61181381856117a9565b93506118238185602086016117ba565b61182c816117ed565b840191505092915050565b600061184383836117fe565b905092915050565b6000602082019050919050565b600061186382611772565b61186d818561177d565b93508360208202850161187f8561178e565b8060005b858110156118bb578484038952815161189c8582611837565b94506118a78361184b565b925060208a01995050600181019050611883565b50829750879550505050505092915050565b6118d68161161f565b82525050565b7f4e487b7100000000000000000000000000000000000000000000000000000000600052602160045260246000fd5b6003811061191c5761191b6118dc565b5b50565b600081905061192d8261190b565b919050565b600061193d8261191f565b9050919050565b61194d81611932565b82525050565b600060a08301600083015184820360008601526119708282611714565b9150506020830151848203602086015261198a8282611858565b915050604083015161199f60408601826118cd565b5060608301516119b26060860182611944565b5060808301516119c560808601826118cd565b508091505092915050565b600081519050919050565b600082825260208201905092915050565b6000819050602082019050919050565b60008115159050919050565b611a11816119fc565b82525050565b6000611a238383611a08565b60208301905092915050565b6000602082019050919050565b6000611a47826119d0565b611a5181856119db565b9350611a5c836119ec565b8060005b83811015611a8d578151611a748882611a17565b9750611a7f83611a2f565b925050600181019050611a60565b5085935050505092915050565b60006040820190508181036000830152611ab48185611953565b90508181036020830152611ac88184611a3c565b90509392505050565b611ada816119fc565b82525050565b6000602082019050611af56000830184611ad1565b92915050565b611b04816116ce565b82525050565b6000602082019050611b1f6000830184611afb565b92915050565b600080fd5b600080fd5b600080fd5b60008083601f840112611b4a57611b49611b25565b5b8235905067ffffffffffffffff811115611b6757611b66611b2a565b5b602083019150836020820283011115611b8357611b82611b2f565b5b9250929050565b60008083601f840112611ba057611b9f611b25565b5b8235905067ffffffffffffffff811115611bbd57611bbc611b2a565b5b602083019150836020820283011115611bd957611bd8611b2f565b5b9250929050565b600080600080600060608688031215611bfc57611bfb611615565b5b6000611c0a88828901611640565b955050602086013567ffffffffffffffff811115611c2b57611c2a61161a565b5b611c3788828901611b34565b9450945050604086013567ffffffffffffffff811115611c5a57611c5961161a565b5b611c6688828901611b8a565b92509250509295509295909350565b611c7e816116ce565b8114611c8957600080fd5b50565b600081359050611c9b81611c75565b92915050565b600060208284031215611cb757611cb6611615565b5b6000611cc584828501611c8c565b91505092915050565b611cd78161161f565b82525050565b6000602082019050611cf26000830184611cce565b92915050565b600082825260208201905092915050565b7f4f776e61626c653a2063616c6c6572206973206e6f7420746865206f776e6572600082015250565b6000611d3f602083611cf8565b9150611d4a82611d09565b602082019050919050565b60006020820190508181036000830152611d6e81611d32565b9050919050565b7f436f6e7472616374206e6f742065786973740000000000000000000000000000600082015250565b6000611dab601283611cf8565b9150611db682611d75565b602082019050919050565b60006020820190508181036000830152611dda81611d9e565b9050919050565b7f4e487b7100000000000000000000000000000000000000000000000000000000600052604160045260246000fd5b7f4e487b7100000000000000000000000000000000000000000000000000000000600052603260045260246000fd5b7f4e487b7100000000000000000000000000000000000000000000000000000000600052601160045260246000fd5b600060ff82169050919050565b6000611e8682611e6e565b915060ff821415611e9a57611e99611e3f565b5b600182019050919050565b7f4e487b7100000000000000000000000000000000000000000000000000000000600052602260045260246000fd5b60006002820490506001821680611eec57607f821691505b60208210811415611f0057611eff611ea5565b5b50919050565b6000611f118261161f565b9150611f1c8361161f565b925082821015611f2f57611f2e611e3f565b5b828203905092915050565b7f4e487b7100000000000000000000000000000000000000000000000000000000600052603160045260246000fd5b6000611f748261161f565b91507fffffffffffffffffffffffffffffffffffffffffffffffffffffffffffffffff821415611fa757611fa6611e3f565b5b600182019050919050565b7f53656e646572206973206e6f74207369676e6572206f66207468697320636f6e60008201527f7472616374000000000000000000000000000000000000000000000000000000602082015250565b600061200e602583611cf8565b915061201982611fb2565b604082019050919050565b6000602082019050818103600083015261203d81612001565b9050919050565b7f53656e64657220616c7265616479207369676e65640000000000000000000000600082015250565b600061207a601583611cf8565b915061208582612044565b602082019050919050565b600060208201905081810360008301526120a98161206d565b9050919050565b60006040820190506120c56000830185611cce565b6120d26020830184611afb565b9392505050565b7f4e756d626572206f66207369676e65727320616e64206e616d6573206172652060008201527f6e6f7220657175616c0000000000000000000000000000000000000000000000602082015250565b6000612135602983611cf8565b9150612140826120d9565b604082019050919050565b6000602082019050818103600083015261216481612128565b9050919050565b7f4976616c6964206e756d6572206f66207369676e657273000000000000000000600082015250565b60006121a1601783611cf8565b91506121ac8261216b565b602082019050919050565b600060208201905081810360008301526121d081612194565b9050919050565b7f436f6e747261637420616c726561647920657869737400000000000000000000600082015250565b600061220d601683611cf8565b9150612218826121d7565b602082019050919050565b6000602082019050818103600083015261223c81612200565b9050919050565b7f4e6f7420456e6f7567682066756e647300000000000000000000000000000000600082015250565b6000612279601083611cf8565b915061228482612243565b602082019050919050565b600060208201905081810360008301526122a88161226c565b9050919050565b6122b8826117ed565b810181811067ffffffffffffffff821117156122d7576122d6611de1565b5b80604052505050565b60006122ea61160b565b90506122f682826122af565b919050565b600067ffffffffffffffff82111561231657612315611de1565b5b602082029050602081019050919050565b600080fd5b600067ffffffffffffffff82111561234757612346611de1565b5b612350826117ed565b9050602081019050919050565b82818337600083830152505050565b600061237f61237a8461232c565b6122e0565b90508281526020810184848401111561239b5761239a612327565b5b6123a684828561235d565b509392505050565b600082601f8301126123c3576123c2611b25565b5b81356123d384826020860161236c565b91505092915050565b60006123ef6123ea846122fb565b6122e0565b9050808382526020820190506020840283018581111561241257612411611b2f565b5b835b8181101561245957803567ffffffffffffffff81111561243757612436611b25565b5b80860161244489826123ae565b85526020850194505050602081019050612414565b5050509392505050565b60006124703684846123dc565b905092915050565b7f4f776e61626c653a206e6577206f776e657220697320746865207a65726f206160008201527f6464726573730000000000000000000000000000000000000000000000000000602082015250565b60006124d4602683611cf8565b91506124df82612478565b604082019050919050565b60006020820190508181036000830152612503816124c7565b905091905056fea264697066735822122020827a9655d0c1e32f235a5054382820aa8cd541ba65be6faefde57d491aae3164736f6c63430008090033",
  "immutableReferences": {},
  "source": "// SPDX-License-Identifier: MIT\npragma solidity 0.8.9 ;\n\n/// @title Contract/document integrity verificator\n/// @author Wilhelm Bendeck\n/// @notice Contract keeps on public chain hash of document signed by interested parties to verify in the future with hash\n/// @dev no issues at this point\n\n\n//import \"https://github.com/OpenZeppelin/openzeppelin-contracts/blob/master/contracts/access/Ownable.sol\";\nimport \"@openzeppelin/contracts/access/Ownable.sol\";\ncontract ContractKeeper is Ownable{\n\n  enum State { NotCreated, Created, Signed }\n\n  uint256 balance;\n\n  struct LegalContract {\n    address[] signers; //array witn the addresses of the signers\n    string[] signersNames; //array with names, description or nicnames of the signers\n    uint256 numSigners; //number of asigners that alredy signed\n    State state; //state of the contract\n    uint256 index; //index in the contracts list\n  }\n  \n struct SigControl {\n     bool isSigner;\n     bool hasSigned;\n }\n \n  mapping (uint => LegalContract) legalContracts; //lchash => LegalContract\n  mapping (uint => mapping (address => SigControl)) sigControl; //signer => Contract => signature state\n  //mapping (address => Signer) signersRegister;\n  uint[] public contractsList;\n\n  constructor()  {\n  }\n\n  modifier isSigner(uint256 lchash){\n    require(sigControl[lchash][msg.sender].isSigner, \"Sender is not signer of this contract\");\n    _;\n  }\n\n  modifier isCreated(uint256 lchash){\n    require(legalContracts[lchash].state == State.Created,\"Contract not exist\");\n    _;\n  }\n\n  modifier exist(uint256 lchash){\n    require(legalContracts[lchash].state != State.NotCreated,\"Contract not exist\");\n    _;\n  }\n\n  modifier verifySigners( address[] calldata signers,string[] calldata names){\n    require(signers.length == names.length, \"Number of signers and names are nor equal\");\n    require(signers.length >1 && signers.length <= 3,\"Ivalid numer of signers\");\n    _;  \n  }\n\n  modifier isNotCreated(uint256 lchash){\n    require(legalContracts[lchash].state == State.NotCreated, \"Contract already exist\");\n    _;\n  }\n  modifier notSigned(uint256 lchash){\n    require(!sigControl[lchash][msg.sender].hasSigned , \"Sender already signed\");\n    _;\n  }\n  \n\n  event LegalContractAdded(uint256 lchash);\n  event LegalContractSigned(uint256 lchash, address signer);\n  event LegalContractRmoved(uint256 lchash);\n  \n/// @notice adds a new contract hash for future signing and verification\n/// @param lchash hash of the document to be keep and used for verification\n/// @param signers array with signers addresses\n/// @param names array with a description of each signer\n/// @return true if succesful in adding contract\n  function addLegalContract ( uint256 lchash ,address[] calldata signers,string[] calldata names )\n    public\n    payable\n    verifySigners(signers,names)\n    isNotCreated(lchash)\n    returns(bool)\n  {\n    require(msg.value >= 1 wei,\"Not Enough funds\");\n    for (uint i = 0; i < signers.length; i++){\n        sigControl[lchash][signers[i]] = SigControl({\n            isSigner: true,\n            hasSigned: false\n        });\n        \n    }\n    legalContracts[lchash] = LegalContract({\n        signers: signers,\n        signersNames: names,\n        numSigners: 0,\n        state: State.Created,\n        index: contractsList.length\n    });\n\n    contractsList.push(lchash);\n    emit LegalContractAdded(lchash);\n    return true;\n  }\n  \n  /// @notice return legal contract data\n  /// @param lchash hash of legal contract to be retrived\n  /// @return (legal contract struct,  boolean[] with signing status of each signer)\n  \n  function getLegalContract(uint256 lchash)\n    public\n    view\n    exist(lchash)\n    returns(LegalContract memory, bool[] memory){\n      bool[] memory signs = new bool[](legalContracts[lchash].signers.length);\n      for (uint8 i=0;i<legalContracts[lchash].signers.length;i++){\n        signs[i]=sigControl[lchash][legalContracts[lchash].signers[i]].hasSigned;\n\n      }\n    return (legalContracts[lchash], signs);\n  }\n  \n  /// @notice called by signer to sign a contract\n  /// @param lchash hash of the contract to be sogned\n  /// @return true if contract is signed succesfully\n  \n  function signContract(uint256 lchash) \n    public\n    isSigner(lchash)\n    isCreated(lchash)\n    notSigned(lchash)\n    returns(bool)\n  {\n       \n      sigControl[lchash][msg.sender].hasSigned = true;\n      legalContracts[lchash].numSigners ++;\n      if (legalContracts[lchash].numSigners == legalContracts[lchash].signers.length){\n          legalContracts[lchash].state = State.Signed;\n      }\n      emit LegalContractSigned(lchash, msg.sender);\n      return true;\n  }\n\n/// @notice call by the owner to remove a contract\n/// @dev before using consider the gas cost of removing the data\n/// @param lchash hash of the contract to be removed\n/// @return true if contract is succesfully removed\n  function removeContract (uint256 lchash) exist(lchash) onlyOwner public returns(bool) {\n    //TODO\n    LegalContract storage toRemove = legalContracts[lchash];\n    LegalContract storage last = legalContracts[contractsList[contractsList.length-1]];\n    contractsList[toRemove.index]=contractsList[last.index];\n    contractsList.pop();\n    for (uint256 i = 0; i<toRemove.signers.length; i++){\n        delete(sigControl[lchash][toRemove.signers[i]]);\n    }\n    delete(legalContracts[lchash]);\n    return true;\n  }\n\n/// @notice function to destroy deployed contract\n  function destroyContract() onlyOwner public {\n    selfdestruct(payable(msg.sender));\n  }\n}\n",
  "sourcePath": "/home/wrbp/BC/blockchain-developer-bootcamp-final-project/contracts/ContractKeeper.sol",
  "compiler": {
    "name": "solc",
    "version": "0.8.9+commit.e5eed63a.Emscripten.clang"
  },
  "schemaVersion": "3.4.3",
  "updatedAt": "2021-11-26T20:23:21.716Z",
  "networkType": "ethereum",
  "devdoc": {
    "kind": "dev",
    "methods": {
      "addLegalContract(uint256,address[],string[])": {
        "params": {
          "lchash": "hash of the document to be keep and used for verification",
          "names": "array with a description of each signer",
          "signers": "array with signers addresses"
        },
        "returns": {
          "_0": "true if succesful in adding contract"
        }
      },
      "getLegalContract(uint256)": {
        "params": {
          "lchash": "hash of legal contract to be retrived"
        },
        "returns": {
          "_0": "(legal contract struct,  boolean[] with signing status of each signer)"
        }
      },
      "owner()": {
        "details": "Returns the address of the current owner."
      },
      "removeContract(uint256)": {
        "details": "before using consider the gas cost of removing the data",
        "params": {
          "lchash": "hash of the contract to be removed"
        },
        "returns": {
          "_0": "true if contract is succesfully removed"
        }
      },
      "renounceOwnership()": {
        "details": "Leaves the contract without owner. It will not be possible to call `onlyOwner` functions anymore. Can only be called by the current owner. NOTE: Renouncing ownership will leave the contract without an owner, thereby removing any functionality that is only available to the owner."
      },
      "signContract(uint256)": {
        "params": {
          "lchash": "hash of the contract to be sogned"
        },
        "returns": {
          "_0": "true if contract is signed succesfully"
        }
      },
      "transferOwnership(address)": {
        "details": "Transfers ownership of the contract to a new account (`newOwner`). Can only be called by the current owner."
      }
    },
    "version": 1
  },
  "userdoc": {
    "kind": "user",
    "methods": {
      "addLegalContract(uint256,address[],string[])": {
        "notice": "adds a new contract hash for future signing and verification"
      },
      "destroyContract()": {
        "notice": "function to destroy deployed contract"
      },
      "getLegalContract(uint256)": {
        "notice": "return legal contract data"
      },
      "removeContract(uint256)": {
        "notice": "call by the owner to remove a contract"
      },
      "signContract(uint256)": {
        "notice": "called by signer to sign a contract"
      }
    },
    "version": 1
  }
}